{
  "_format": "hh-sol-artifact-1",
  "contractName": "RoomRent",
  "sourceName": "contracts/RoomRent.sol",
  "abi": [
    {
      "anonymous": false,
      "inputs": [
        {
          "indexed": true,
          "internalType": "address",
          "name": "payer",
          "type": "address"
        },
        {
          "indexed": false,
          "internalType": "uint256",
          "name": "amount",
          "type": "uint256"
        },
        {
          "indexed": false,
          "internalType": "uint256",
          "name": "roomNumber",
          "type": "uint256"
        },
        {
          "indexed": false,
          "internalType": "string",
          "name": "name",
          "type": "string"
        },
        {
          "indexed": false,
          "internalType": "uint256",
          "name": "timestamp",
          "type": "uint256"
        }
      ],
      "name": "PaymentMade",
      "type": "event"
    },
    {
      "inputs": [],
      "name": "getPayments",
      "outputs": [
        {
          "components": [
            {
              "internalType": "string",
              "name": "name",
              "type": "string"
            },
            {
              "internalType": "uint256",
              "name": "roomNumber",
              "type": "uint256"
            },
            {
              "internalType": "uint256",
              "name": "amount",
              "type": "uint256"
            },
            {
              "internalType": "uint256",
              "name": "timestamp",
              "type": "uint256"
            }
          ],
          "internalType": "struct RoomRent.Payment[]",
          "name": "",
          "type": "tuple[]"
        }
      ],
      "stateMutability": "view",
      "type": "function"
    },
    {
      "inputs": [
        {
          "internalType": "address",
          "name": "payer",
          "type": "address"
        }
      ],
      "name": "getPaymentsByAddress",
      "outputs": [
        {
          "components": [
            {
              "internalType": "string",
              "name": "name",
              "type": "string"
            },
            {
              "internalType": "uint256",
              "name": "roomNumber",
              "type": "uint256"
            },
            {
              "internalType": "uint256",
              "name": "amount",
              "type": "uint256"
            },
            {
              "internalType": "uint256",
              "name": "timestamp",
              "type": "uint256"
            }
          ],
          "internalType": "struct RoomRent.Payment[]",
          "name": "",
          "type": "tuple[]"
        }
      ],
      "stateMutability": "view",
      "type": "function"
    },
    {
      "inputs": [
        {
          "internalType": "string",
          "name": "name",
          "type": "string"
        },
        {
          "internalType": "uint256",
          "name": "roomNumber",
          "type": "uint256"
        }
      ],
      "name": "makePayment",
      "outputs": [],
      "stateMutability": "payable",
      "type": "function"
    },
    {
      "inputs": [
        {
          "internalType": "address",
          "name": "",
          "type": "address"
        },
        {
          "internalType": "uint256",
          "name": "",
          "type": "uint256"
        }
      ],
      "name": "paymentRecords",
      "outputs": [
        {
          "internalType": "string",
          "name": "name",
          "type": "string"
        },
        {
          "internalType": "uint256",
          "name": "roomNumber",
          "type": "uint256"
        },
        {
          "internalType": "uint256",
          "name": "amount",
          "type": "uint256"
        },
        {
          "internalType": "uint256",
          "name": "timestamp",
          "type": "uint256"
        }
      ],
      "stateMutability": "view",
      "type": "function"
    },
    {
      "inputs": [
        {
          "internalType": "uint256",
          "name": "",
          "type": "uint256"
        }
      ],
      "name": "payments",
      "outputs": [
        {
          "internalType": "string",
          "name": "name",
          "type": "string"
        },
        {
          "internalType": "uint256",
          "name": "roomNumber",
          "type": "uint256"
        },
        {
          "internalType": "uint256",
          "name": "amount",
          "type": "uint256"
        },
        {
          "internalType": "uint256",
          "name": "timestamp",
          "type": "uint256"
        }
      ],
      "stateMutability": "view",
      "type": "function"
    }
  ],
  "bytecode": "0x608060405234801561001057600080fd5b5061105f806100206000396000f3fe60806040526004361061004a5760003560e01c8063017f755b1461004f57806308b80c601461008f5780632a5f5281146100cc57806387d81789146100e8578063d56bd14214610128575b600080fd5b34801561005b57600080fd5b50610076600480360381019061007191906107b7565b610153565b6040516100869493929190610896565b60405180910390f35b34801561009b57600080fd5b506100b660048036038101906100b191906108e2565b610228565b6040516100c39190610a8d565b60405180910390f35b6100e660048036038101906100e19190610be4565b610376565b005b3480156100f457600080fd5b5061010f600480360381019061010a9190610c40565b610538565b60405161011f9493929190610896565b60405180910390f35b34801561013457600080fd5b5061013d610600565b60405161014a9190610a8d565b60405180910390f35b6001602052816000526040600020818154811061016f57600080fd5b90600052602060002090600402016000915091505080600001805461019390610c9c565b80601f01602080910402602001604051908101604052809291908181526020018280546101bf90610c9c565b801561020c5780601f106101e15761010080835404028352916020019161020c565b820191906000526020600020905b8154815290600101906020018083116101ef57829003601f168201915b5050505050908060010154908060020154908060030154905084565b6060600160008373ffffffffffffffffffffffffffffffffffffffff1673ffffffffffffffffffffffffffffffffffffffff168152602001908152602001600020805480602002602001604051908101604052809291908181526020016000905b8282101561036b57838290600052602060002090600402016040518060800160405290816000820180546102bc90610c9c565b80601f01602080910402602001604051908101604052809291908181526020018280546102e890610c9c565b80156103355780601f1061030a57610100808354040283529160200191610335565b820191906000526020600020905b81548152906001019060200180831161031857829003601f168201915b50505050508152602001600182015481526020016002820154815260200160038201548152505081526020019060010190610289565b505050509050919050565b600034116103b9576040517f08c379a00000000000000000000000000000000000000000000000000000000081526004016103b090610d3f565b60405180910390fd5b600060405180608001604052808481526020018381526020013481526020014281525090506000819080600181540180825580915050600190039060005260206000209060040201600090919091909150600082015181600001908161041f9190610f0b565b506020820151816001015560408201518160020155606082015181600301555050600160003373ffffffffffffffffffffffffffffffffffffffff1673ffffffffffffffffffffffffffffffffffffffff16815260200190815260200160002081908060018154018082558091505060019003906000526020600020906004020160009091909190915060008201518160000190816104be9190610f0b565b5060208201518160010155604082015181600201556060820151816003015550503373ffffffffffffffffffffffffffffffffffffffff167ffbfbfd4bfa4c2837f417bcb75d568ea57d6114e846c437a384141383de9a86b83484864260405161052b9493929190610fdd565b60405180910390a2505050565b6000818154811061054857600080fd5b906000526020600020906004020160009150905080600001805461056b90610c9c565b80601f016020809104026020016040519081016040528092919081815260200182805461059790610c9c565b80156105e45780601f106105b9576101008083540402835291602001916105e4565b820191906000526020600020905b8154815290600101906020018083116105c757829003601f168201915b5050505050908060010154908060020154908060030154905084565b60606000805480602002602001604051908101604052809291908181526020016000905b82821015610706578382906000526020600020906004020160405180608001604052908160008201805461065790610c9c565b80601f016020809104026020016040519081016040528092919081815260200182805461068390610c9c565b80156106d05780601f106106a5576101008083540402835291602001916106d0565b820191906000526020600020905b8154815290600101906020018083116106b357829003601f168201915b50505050508152602001600182015481526020016002820154815260200160038201548152505081526020019060010190610624565b50505050905090565b6000604051905090565b600080fd5b600080fd5b600073ffffffffffffffffffffffffffffffffffffffff82169050919050565b600061074e82610723565b9050919050565b61075e81610743565b811461076957600080fd5b50565b60008135905061077b81610755565b92915050565b6000819050919050565b61079481610781565b811461079f57600080fd5b50565b6000813590506107b18161078b565b92915050565b600080604083850312156107ce576107cd610719565b5b60006107dc8582860161076c565b92505060206107ed858286016107a2565b9150509250929050565b600081519050919050565b600082825260208201905092915050565b60005b83811015610831578082015181840152602081019050610816565b60008484015250505050565b6000601f19601f8301169050919050565b6000610859826107f7565b6108638185610802565b9350610873818560208601610813565b61087c8161083d565b840191505092915050565b61089081610781565b82525050565b600060808201905081810360008301526108b0818761084e565b90506108bf6020830186610887565b6108cc6040830185610887565b6108d96060830184610887565b95945050505050565b6000602082840312156108f8576108f7610719565b5b60006109068482850161076c565b91505092915050565b600081519050919050565b600082825260208201905092915050565b6000819050602082019050919050565b600082825260208201905092915050565b6000610957826107f7565b610961818561093b565b9350610971818560208601610813565b61097a8161083d565b840191505092915050565b61098e81610781565b82525050565b600060808301600083015184820360008601526109b1828261094c565b91505060208301516109c66020860182610985565b5060408301516109d96040860182610985565b5060608301516109ec6060860182610985565b508091505092915050565b6000610a038383610994565b905092915050565b6000602082019050919050565b6000610a238261090f565b610a2d818561091a565b935083602082028501610a3f8561092b565b8060005b85811015610a7b5784840389528151610a5c85826109f7565b9450610a6783610a0b565b925060208a01995050600181019050610a43565b50829750879550505050505092915050565b60006020820190508181036000830152610aa78184610a18565b905092915050565b600080fd5b600080fd5b7f4e487b7100000000000000000000000000000000000000000000000000000000600052604160045260246000fd5b610af18261083d565b810181811067ffffffffffffffff82111715610b1057610b0f610ab9565b5b80604052505050565b6000610b2361070f565b9050610b2f8282610ae8565b919050565b600067ffffffffffffffff821115610b4f57610b4e610ab9565b5b610b588261083d565b9050602081019050919050565b82818337600083830152505050565b6000610b87610b8284610b34565b610b19565b905082815260208101848484011115610ba357610ba2610ab4565b5b610bae848285610b65565b509392505050565b600082601f830112610bcb57610bca610aaf565b5b8135610bdb848260208601610b74565b91505092915050565b60008060408385031215610bfb57610bfa610719565b5b600083013567ffffffffffffffff811115610c1957610c1861071e565b5b610c2585828601610bb6565b9250506020610c36858286016107a2565b9150509250929050565b600060208284031215610c5657610c55610719565b5b6000610c64848285016107a2565b91505092915050565b7f4e487b7100000000000000000000000000000000000000000000000000000000600052602260045260246000fd5b60006002820490506001821680610cb457607f821691505b602082108103610cc757610cc6610c6d565b5b50919050565b7f5061796d656e7420616d6f756e74206d7573742062652067726561746572207460008201527f68616e207a65726f000000000000000000000000000000000000000000000000602082015250565b6000610d29602883610802565b9150610d3482610ccd565b604082019050919050565b60006020820190508181036000830152610d5881610d1c565b9050919050565b60008190508160005260206000209050919050565b60006020601f8301049050919050565b600082821b905092915050565b600060088302610dc17fffffffffffffffffffffffffffffffffffffffffffffffffffffffffffffffff82610d84565b610dcb8683610d84565b95508019841693508086168417925050509392505050565b6000819050919050565b6000610e08610e03610dfe84610781565b610de3565b610781565b9050919050565b6000819050919050565b610e2283610ded565b610e36610e2e82610e0f565b848454610d91565b825550505050565b600090565b610e4b610e3e565b610e56818484610e19565b505050565b5b81811015610e7a57610e6f600082610e43565b600181019050610e5c565b5050565b601f821115610ebf57610e9081610d5f565b610e9984610d74565b81016020851015610ea8578190505b610ebc610eb485610d74565b830182610e5b565b50505b505050565b600082821c905092915050565b6000610ee260001984600802610ec4565b1980831691505092915050565b6000610efb8383610ed1565b9150826002028217905092915050565b610f14826107f7565b67ffffffffffffffff811115610f2d57610f2c610ab9565b5b610f378254610c9c565b610f42828285610e7e565b600060209050601f831160018114610f755760008415610f63578287015190505b610f6d8582610eef565b865550610fd5565b601f198416610f8386610d5f565b60005b82811015610fab57848901518255600182019150602085019450602081019050610f86565b86831015610fc85784890151610fc4601f891682610ed1565b8355505b6001600288020188555050505b505050505050565b6000608082019050610ff26000830187610887565b610fff6020830186610887565b8181036040830152611011818561084e565b90506110206060830184610887565b9594505050505056fea2646970667358221220b9d261fb9f536c40b2faf0e946e9a1e2089948a08fde476dc2f7e2c02f79353464736f6c63430008180033",
  "linkReferences": {},
  "deployedLinkReferences": {}
}